S01700006275696C642F697269732F6D61696E2E7372656343
S11300000C9469000C9488000C9488000C9488006B
S11300100C9488000C9488000C9488000C9488003C
S11300200C9488000C9488000C9488000C9488002C
S11300300C9488000C94F5040C9488000C947803B8
S11300400C94260D0C945C0D0C94B1040C94BC041B
S11300500C94C7040C9488000C9488000C948800B9
S11300600C940E040C9488000C9488000C94880062
S11300700C9488000C948C030C9488000C948800D5
S11300800C9488000C9488000C9488000C948800CC
S11300900C9488000C9488000C9488000C948800BC
S11300A00C9488000C9488000C9488000C948800AC
S11300B00C9488000C9488000C9488000C9488009C
S11300C00C9488000C9488000C94880000020E069E
S11300D00C0411241FBECFEFD1E2DEBFCDBF12E06E
S11300E0A0E0B2E0EAEFFCE200E00BBF02C0079040
S11300F00D92AA31B107D9F713E0AAE1B2E001C029
S11301001D92A83CB107E1F70E94FA120C947C16E8
S11301100C9400008FB7F894992708958FBF089521
S1130120282F9FB7F894E82FFF27EB5CFD4F8081C1
S11301308F3F81F4E091C003E21771F40BC0209368
S1130140F10204C0FF27EB5CFD4F20832093C00322
S113015020E007C025E005C08091F1028F3F91F7B0
S1130160EECF892F99278FBF822F9927089588234F
S113017019F08CB5806402C08CB58F7B8CBD08955A
S1130180882319F08CB5806802C08CB58F778CBD3C
S113019008950F931F9380E00E94B7000FB7F8945F
S11301A01127229A2398219A209A8CB580618CBDBC
S11301B080E00E94C0008CB5877F8CBD8CB58B7F9E
S11301C08CBD81E00E94B7008DB581608DBD8CB57A
S11301D08C7F8CBD0FBF1F910F9108950F931F93B8
S11301E0CF93DF93182F0FB7F89480911E028823C2
S11301F011F40E94C900802F99278FBF8FB7F894FC
S1130200C82FDD272C2F80911E02882361F481E002
S113021080931E0210935A028BE00E949000CFBF7D
S113022080E090E021C0E12FFF27E75AFD4F808155
S11302308F3F89F4E0911602E11789F40CC0109302
S1130240150204C0FF27E75AFD4F108310931602CE
S113025080E090E002C085E090E02FBF05C080916F
S113026015028F3F79F7EBCFDF91CF911F910F915B
S11302700895FB0121E030E002C0220F331F8A956C
S1130280E2F784A5822B84A708958FB7F894209170
S1130290C2023091C3024091C4025091C502E09160
S11302A08400F0918500B09B08C02F5F3F4F4F4FF3
S11302B05F4FE0918400F091850099278FBFC901B9
S11302C0772766279F0144275527622B732B842B9E
S11302D0952B0895FC0182819927982F88272181E5
S11302E03327822B932B25E0969587952A95E1F762
S11302F0817090700895AC01EFB7F8942091840058
S113030030918500C901841B950B039686179707C6
S113031020F0B9016D5F7F4F02C0640F751F611536
S1130320710511F461E070E06150704070938900D0
S11303306093880082E086BB80916F008260809326
S11303406F008E2F99278FBF089580932A038823E7
S113035011F484E001C081E080934F0286E00E94A2
S113036090000895CF93DF93EC010E946A018823E3
S113037039F18A8129819927982F88273327822B5D
S1130380932B87749C7C81549848D1F48F814E813F
S11303902FB7F894332760910F02709110022FBF8A
S11303A020E09927982F88275527842B952B86178B
S11303B0970709F021E081E02827822F992702C0BE
S11303C080E090E0DF91CF910895FB0121E030E0DF
S11303D002C0220F331F8A95E2F784A5822399274E
S11303E0089521E020935B022093D202209184009F
S11303F030918500BC01C9010E947B010895EF92F0
S1130400FF920F931F937C018FB7F8949927009163
S1130410D9021091DA020F5E1E4F1093DA02009394
S1130420D902015111408FBF88E00E949000C80199
S1130430B7010E940B168A5D9E4F1F910F91FF908A
S1130440EF9008957FB7F8946091B2002091300244
S1130450309131024091320250913302B99B11C064
S11304608091B3009091B200280F311D411D511DA0
S11304702F5F3F4F4F4F5F4F290F311D411D511DBE
S113048004C0260F311D411D511D872F99278FBF91
S1130490CA01B9010895982F969596959695E6EC1C
S11304A0F2E0E90FF11D877021E030E002C0220F75
S11304B0331F8A95E2F780818223992708958091DA
S11304C0F502882319F02FE150E002C058E02EE134
S11304D0622F7FB7F894809144028E7F8093440208
S11304E080917C00982F9F71829586958695837064
S11304F019F080E090E00CC040E03327892F992761
S11305002817390709F041E081E04827842F99270B
S1130510982F9170990F809144028178262F2F7122
S1130520422F440F440F892B842B8093440233279A
S113053020937C00583059F58091F2029091F30297
S113054021E08638920718F087E090E01FC0833CD2
S1130550910518F086E090E019C08136910518F0F5
S113056085E090E013C08033910518F084E090E0BA
S11305700DC08831910518F083E090E007C00C9716
S113058018F082E090E002C080E090E0582F5770AD
S1130590887D852B886D992780937A00872F9927EA
S11305A08FBF0895DF92EF92FF920F931F938FB73F
S11305B0F894282F3327D22E9091B3008091B20063
S11305C047B3981711F041FF02C02FBF71C080914B
S11305D051028823E1F10E942202E0902902F09066
S11305E02A0200912B0210912C02209126033091B3
S11305F0270340912803509129036E197F09800B2A
S1130600910B621773078407950720F0109251022B
S113061071E01EC02E0D3F1D401F511F80913002FE
S113062090913102A0913202B0913302281B390B10
S11306304A0B5B0B273E31054105510540F4822FDF
S1130640223010F070E005C070E082E002C070E07B
S113065086EE682F61508091B60083FDFCCF8091B7
S1130660B200681709F46F5F2091300230913102B3
S11306704091320250913302DA01C9010196A11D61
S1130680B11D860F911DA11DB11D82179307A407EB
S1130690B50710F4622F60958091B60083FDFCCFFE
S11306A06093B300DFBE772319F080E00E949000CE
S11306B01F910F91FF90EF90DF900895AFB7F894DA
S11306C0BB27E1E0E09351026093290270932A0270
S11306D080932B0290932C022093260330932703BC
S11306E04093280350932903AFBF0E94D202089578
S11306F01F920F920FB60F9211248F938091B00026
S11307008093B0008091B60081FDFCCF8F910F9053
S11307100FBE0F901F9018951F920F920FB60F9255
S113072011242F933F934F935F936F937F938F93F2
S11307309F93AF93BF93EF93FF93409178005091B1
S1130740790078948FB7F894992720914402322F36
S11307503695317021708FBF222329F580917A005C
S1130760877F80937A0080918B02813021F08230E0
S113077009F043C00AC0332351F05093D60240938A
S1130780D50283E00E94900038C0332349F48DE7FA
S113079090E0019701960197E1F70E945F022DC056
S11307A010928B022AC08FB7F89499278FBF2FB766
S11307B0F894332780917A00582F5770482F40724D
S11307C0987D942B952B8074977B982B90619F77C1
S11307D0892F992780937A00887D842B852B8773B2
S11307E08061992780937A00887D842B852B877B71
S11307F08069992780937A002FBFFF91EF91BF9171
S1130800AF919F918F917F916F915F914F913F91A4
S11308102F910F900FBE0F901F9018951F920F925B
S11308200FB60F9211240F931F932F933F934F935F
S11308305F936F937F938F939F93AF93BF93CF9364
S1130840DF93EF93FF932EB5E091D002F091D102A4
S1130850309739F08091BC029091BD02E80FF91FE6
S113086020838091BC029091BD0201969093BD02B9
S11308708093BC0280E00E94C000C091BC02D09171
S1130880BD022091210230912202C217D30708F041
S113089042C00091B8031091B9034091D002509125
S11308A0D102CE010A962817390708F4C901DA01E2
S11308B0AC0FBD1FF801EC0FFD1F9C01215030400F
S11308C015C00115110531F080818EBD0DB407FEF0
S11308D0FDCF04C01EBC0DB407FEFDCF8EB541157F
S11308E0510509F08C93219611963196C217D307BE
S11308F040F381E00E94C0000115110531F00C0F96
S11309001D1FF80180818EBD01C01EBCD093BD02A5
S1130910C093BC0211C01092D1021092D002109266
S1130920B9031092B803109222021092210210927D
S1130930BD021092BC028EB5FF91EF91DF91CF9171
S1130940BF91AF919F918F917F916F915F914F91E3
S11309503F912F911F910F910F900FBE0F901F90F9
S1130960189578941F920F920FB60F9211240F903E
S11309700FBE0F901F90189578941F920F920FB688
S11309800F9211240F900FBE0F901F90189578941A
S11309901F920F920FB60F9211242F933F938F93B0
S11309A09F93AF93BF932FB7F89433278091C202DC
S11309B09091C302A091C402B091C5020196A11DF9
S11309C0B11D8093C2029093C302A093C402B0935A
S11309D0C5022FBFBF91AF919F918F913F912F91EE
S11309E00F900FBE0F901F9018951F920F920FB685
S11309F00F9211242F933F934F935F936F937F93A1
S1130A008F939F93AF93BF93EF93FF938091B00025
S1130A108093B0008091B60081FDFCCF8091B3003B
S1130A2099270196AA27BB272091300230913102E1
S1130A304091320250913302280F391F4A1F5B1F25
S1130A4020933002309331024093320250933302A8
S1130A5078940E94D202FF91EF91BF91AF919F9140
S1130A608F917F916F915F914F913F912F910F9053
S1130A700FBE0F901F901895EF92FF920F931F9344
S1130A80E091CF02E1FF6FC02091C7023091C8020C
S1130A904091C9025091CA02E090CB02F090CC027E
S1130AA00091CD021091CE02621B730B840B950B47
S1130AB06E157F058007910708F455C0E0FF04C058
S1130AC0ED7FE093CF020CC02E0D3F1D401F511F40
S1130AD02093C7023093C8024093C9025093CA02BC
S1130AE08FB7F894082F112780911C02882361F591
S1130AF081E080931C021092DB020FBF2FB7F894A1
S1130B00332780917A00806880937A002FBF8FB753
S1130B10F894082F1127902F80910E02813091F4C0
S1130B2080911C02813021F482E00E9490001AC05E
S1130B30823041F48091DB0280930E0283E0809343
S1130B401C0210C09FBF0FC08091DB02882351F0AC
S1130B5080E00E944B02882329F48091C6028160C0
S1130B608093C6020FBF81E00E9490001F910F91F5
S1130B70FF90EF9008958FB7F894282F3327922F82
S1130B8080911702882331F480911E02823011F47F
S1130B902FBF13C09FBF8FB7F894282F332780919E
S1130BA01E02882369F482E080931E0210921702C9
S1130BB02FBF0E94C900209A289A81E090E00895EE
S1130BC02FBF80E00E94EE0080E090E008950F9334
S1130BD01F93982F1FB7F89480911E02823099F5C5
S1130BE080911702891779F58091150220E030E091
S1130BF08F3F11F421E030E0232BF1F49FEF909329
S1130C0017028F3F19F42FEF30E00DC0282F332740
S1130C10F901E75AFD4F8081809315028F3F11F44B
S1130C2090931602908320935A0281E080931E02CF
S1130C308BE00E94900005C08FEF80931702109202
S1130C401E0201E001C000E0812F99278FBF1FB76A
S1130C50F89480911E02882311F40E94B700812F1A
S1130C6099278FBF90E0013009F491E081E0982743
S1130C70892F99271F910F9108951F93982F1FB7BC
S1130C80F89480911D02823099F58091140289179D
S1130C9079F58091120220E030E08F3F11F421E0D9
S1130CA030E0232BF1F49FEF909314028F3F19F45B
S1130CB02FEF30E00DC0282F3327F901E65BFD4FFD
S1130CC08081809312028F3F11F4909313029083DA
S1130CD02093470281E080931D0284E00E949000EB
S1130CE005C08FEF8093140210921D0221E001C011
S1130CF020E0812F99278FBF90E0213009F491E003
S1130D0081E09827892F99271F91089580914F0298
S1130D10823031F481E080934F0286E00E9490009B
S1130D2008954F925F926F927F928F929F92AF92AB
S1130D30BF92CF92DF92EF92FF920F931F93CF93C4
S1130D40DF932C0180912002882309F083C18091D4
S1130D50BA03853009F07EC10E94BB05882309F4DB
S1130D6079C18091E202882309F074C1B20182E062
S1130D700E94E501882311F490E003C0F20196A5D6
S1130D809F7080918C02981781F090938C02289820
S1130D9085EC8EBD0DB407FEFDCF8EB590689EBD6B
S1130DA00DB407FEFDCF8EB5289AE2012196898104
S1130DB0F201218140E09927982F88273327822B3D
S1130DC0932B87749C7C8154984809F441E0442314
S1130DD001F1289886E88EBD0DB407FEFDCF8EB5CF
S1130DE01EBC0DB407FEFDCF8EB5289A99278F71CE
S1130DF090702091560240914B02240F312D311DE9
S1130E0043E0359527954A95E1F7281739070CF4FF
S1130E1021C1289882EC8EBD0DB407FEFDCF8EB59E
S1130E2089E08EBD0DB407FEFDCF8EB5289A0E94D1
S1130E3045017B018C01B20184E00E94E501882315
S1130E4019F4E0E0F0E006C0D2018C918550F20183
S1130E50E80FF11D289881E88EBD0DB407FEFDCF83
S1130E608EB51EBC0DB407FEFDCF8EB5289A8F71CA
S1130E70893079F0289882EC8EBD0DB407FEFDCF41
S1130E808EB586E08EBD0DB407FEFDCF8EB5289AD3
S1130E90E1C08FB7F89499272F9A2091840030915C
S1130EA085008FBF2F98289880E68EBDD2019C9133
S1130EB00DB407FEFDCF8EB59EBD792F72507730ED
S1130EC010F4672F01C067E0DE01962F4D910DB439
S1130ED007FEFDCF8EB54EBD9150C1F76150C60FD0
S1130EE0D11D6F5F21962E193F092E553F4F3901B1
S1130EF0882477FC8094982C6E0C7F1C801E911E95
S1130F00309719F4972F961B42C02081E18082818B
S1130F10A3809927AA27BB27BA2FA92F982F882700
S1130F20332744275527522F442733272227FF24CA
S1130F30002711278701FF24EE242E293F29402B67
S1130F40512BBB24CC24DD242A293B294C295D299F
S1130F50822B932BA42BB52B86199709A809B909C1
S1130F608383292F3A2F4B2F552722839D01442712
S1130F70552721838B2F9927AA27BB278083C2CF8C
S1130F8028810DB407FEFDCF21968EB52EBD91505C
S1130F90B8F70DB407FEFDCF8EB5289A289882ECD9
S1130FA08EBD0DB407FEFDCF8EB586E08EBD0DB4AB
S1130FB007FEFDCF8EB5289A3097D1F12081E180CC
S1130FC08281A3809927AA27BB27BA2FA92F982FFC
S1130FD08827332744275527522F4427332722278E
S1130FE0FF24002711278701FF24EE242E293F29FF
S1130FF0402B512BBB24CC24DD242A293B294C290A
S11310005D29822B932BA42BB52B860D971DA81D30
S1131010B91D8383292F3A2F4B2F552722839D01F6
S11310204427552721838B2F9927AA27BB27808301
S1131030B20181E00E943901F20160A671A682A684
S113104093A686E08093BA0384E08093200280E034
S113105090E002C085E090E0DF91CF911F910F9165
S1131060FF90EF90DF90CF90BF90AF909F908F90C4
S11310707F906F905F904F900895AF92BF92CF9200
S1131080DF92EF92FF920F931F93CF93DF938091A0
S1131090E202882309F402C10E94BB05882309F4F3
S11310A0FDC08FB7F8949927C0915702D091580288
S11310B08FBF1092E20228988FE88EBD0DB407FE10
S11310C0FDCF8EB51EBC0DB407FEFDCF8EB5289A9C
S11310D0982F80912002833011F0873031F485E01D
S11310E08093BA0388E080932002A92EBB24A2FE39
S11310F063C080912002863019F41092200203C04C
S1131100882309F059C0943009F045C0289886E82E
S11311108EBD0DB407FEFDCF8EB51EBC0DB407FE0B
S1131120FDCFFEB4289A2FE1F22280914B02982F32
S113113096959695EF2DE91B8E0F80934B020091A7
S11311402D0210912E02F80184A58B7F84A7B8018B
S113115083E00E943901F801F6A60E9445017B0153
S11311608C01C0902D02D0902E02B60181E00E9425
S11311703901CE19DF092797CE01AA2797FDA0953B
S1131180BA2F8E0D9F1DA01FB11FF60180A791A736
S1131190A2A7B3A70EC0E0912D02F0912E0284A560
S11311A0877F84A7E0912D02F0912E0284A58D7F84
S11311B084A785E080932002A3FE70C08091200262
S11311C0843009F04EC085E08093BA031092200267
S11311D080912F02833019F410922F025FC0C091C6
S11311E0C103D091C203CE010E946A01882389F110
S11311F08A8129819927982F88273327822B932B3B
S113120087749C7C8154984821F58F812E8199277D
S1131210982F88273327822B932B8F5F9F4FC9F0FA
S113122090E08091D202882309F491E0992389F017
S113123012E010935B0281E08093D20280918400DB
S11312409091850069E973E00E947B0110932F025D
S113125025C010922F021092500280E00E94A50136
S11312601DC08530D9F420915602289886E88EBD99
S11312700DB407FEFDCF8EB51EBC0DB407FEFDCF29
S11312808EB5289A8F71922F96959695891B280F63
S11312902093560289E08093200208C09091200296
S11312A0992309F4E5C2993009F012C2289880E222
S11312B08EBD0DB407FEFDCF8EB51EBC0DB407FE6A
S11312C0FDCF8EB5482F5527433008F496C3842F9D
S11312D099278A970CF091C31EBCE0912D02F091DE
S11312E02E024083542F5250573010F4452F01C022
S11312F047E0DF011196242FFD0160E070E00DB49A
S113130007FEFDCF8EB51EBC992781936827062E54
S11313106295607F6025072E762F62956F70062692
S1131320669576276727660F660F660F602521503E
S113133031F74150A40FB11D4F5F1196E0912D027A
S1131340F0912E02818190E08770823009F491E05F
S1131350992349F020E030E080912F02823081F41B
S113136021E030E00DC08FB7F894282F332790E0A8
S11313708091DC02833008F491E02FBF292F3327BA
S1131380232B09F45CC0952F941B18C00DB407FEE1
S1131390FDCF8EB51EBC8C938D916827062E629569
S11313A0607F6025072E762F62956F7006266695FE
S11313B076276727660F660F660F6025915030F712
S11313C00DB407FEFDCF8EB51EBC9B012827022E4F
S11313D02295207F2025032E322F22952F7002265E
S11313E0269532272327220F220F220F20250DB402
S11313F007FEFDCF8EB51EBC2827022E2295207F26
S11314002025032E322F22952F700226269532276F
S11314102327220F220F220F20250DB407FEFDCF14
S11314208EB5E0912D02F0912E0285A7289A15E041
S11314301093BA0310922002232B31F015C20DB47D
S113144007FEFDCF8EB5D9C2E0902D02F0902E029A
S113145067010894C11CD11CF701818190E0282FF9
S11314603327277030702230310509F491E08091E0
S11314702F02992321F1823009F025C1F7019381CC
S1131480E091C103F091C2038381981709F01BC155
S11314902230310509F017C180916F008D7F809350
S11314A06F001092D202BF0180E00E9439011092B5
S11314B02F021092500280E00E94A50104C18823EB
S11314C0C9F4C7010E94B2018823A1F010938D02D0
S11314D082E080938E0210928F02F70183818093C1
S11314E090028DE892E00E949106882319F483E02B
S11314F080932F020091840010918500C7010E94FF
S1131500B201882311F0045E1C4F1093BF020093B4
S1131510BE0280918400909185009801281B390BAC
S113152012161306A4F480915002882369F490E003
S11315308091D202882309F491E0992341F0C901F2
S11315400E94F10180E801C0806880935002F60196
S1131550808527819927582F44273327422B532BE3
S113156080913402282F3327F901EE0FFF1FED512C
S1131570FD4F808191817091D3028417950769F49E
S1131580F901E554FC4F8081871709F467C0872F60
S11315908F5F8093D30280831DC000E010E080E061
S11315A090E0C3EED2E0EBEBF3E0DF01682F9C01A7
S11315B0888199818417950779F420933402909156
S11315C0D3028C91891709F449C0892F8F5F8093C6
S11315D0D3028C9300E829C08081972F981B0917A8
S11315E010F4092F122F6F5FC901019611962296EC
S11315F0319685309105D1F66530B9F410933402F3
S1131600A12FBB27FD01EE0FFF1FED51FD4F5183AD
S113161040838091D3028F5F8093D302FD01E55410
S1131620FC4F8083AD53BC4F1C929091D302892F01
S11316308F778F3779F40F3768F0EBEBF3E0292FCE
S1131640207880818F6789132083319683E0E03C82
S1131650F807B9F780913402282F3327F6019281D5
S1131660A22FBB27FD01ED53FC4F808180FF07C0F3
S1131670FD01E352FD4F8081981729F102C081607A
S11316808083A352BD4F9C93DFB6F8948091DC0213
S11316908330B0F4E091F402E80FE33008F0E35053
S11316A0FF27EE0FFF1FED5DFD4F00811181F182D9
S11316B0E0828F5F8093DC0287E00E9490007801D3
S11316C08D2D99278FBFF0922E02E0922D02C3C078
S11316D0892F8150833008F09CC081508230E0F41F
S11316E03091BA033130C1F420E08091D2028823D2
S11316F009F421E0222381F02F9883E080935B0298
S11317003093D20280918400909185006BE273E063
S11317100E947B0182E068C0933009F042C080914E
S1131720BA03833009F097C00E94BB058823C9F12E
S113173028988FE88EBD0DB407FEFDCF8EB51EBC74
S11317400DB407FEFDCF8EB5289A80918100806488
S11317508093810080E286BB80916F0080628093D9
S11317606F0090914602289888EC8EBD0DB407FE58
S1131770FDCF8EB590669EBD0DB407FEFDCF8EB530
S1131780289A289882EC8EBD0DB407FEFDCF8EB545
S113179086E08EBD0DB407FEFDCF8EB5289A84E099
S11317A023C0809120028150823000F58091BA03D9
S11317B08530E1F40E94BB058823C1F0289882ECAF
S11317C08EBD0DB407FEFDCF8EB583E08EBD0DB486
S11317D007FEFDCF8EB5289A80916F008F7D809390
S11317E06F001092E20283E08093BA03909120028A
S11317F0913041F48091BA038330B1F52F9A9093DC
S1131800BA0325C0923039F58091BA03833061F56B
S11318101EC0973001F50E94BB058823E1F090912A
S11318204602289888EC8EBD0DB407FEFDCF8EB518
S113183090669EBD0DB407FEFDCF8EB5289A8091AB
S1131840BA03853021F484E08093BA0304C088E0AD
S11318508093200204C080912002883029F41092E1
S1131860200285E00E94900080912002882309F5DF
S11318708091BA038530D1F48091E2028823B1F4D7
S113188080912F02882391F480915002882371F46F
S113189090E08091D202882309F491E0992331F0F9
S11318A00E94860680912002882319F489E00E9410
S11318B090008091D202823009F092C01092D2023C
S11318C0F0905B02F2E0FF1609F466C023E0F21622
S11318D009F46AC081E0F81609F082C02091BE02C2
S11318E03091BF0280918400909185004091500214
S11318F0403829F4109250020E94860671C0890172
S1131900081B190B47FF03C010161106ECF0C09119
S11319104C02D0914D0280912F028823A9F4CE016C
S11319200E9491069927882351F48CA58E7F8CA759
S1131930F0922F02D093C203C093C10329C0992708
S1131940F82E882329F102C065E0F62E209150027A
S1131950822F99278F77019759F42078226020935A
S1131960500280E198E00E94FF010E94F10138C01A
S113197027FF0AC0101611063CF480E88093500239
S1131980C8010E94F10102C0109250028F2D09C0BB
S113199083E08093500224C010922F0210925002D0
S11319A080E00E94A5011CC08091BA03823019F422
S11319B0F092BA0313C080912002863079F4109219
S11319C02002289881E88EBD0DB407FEFDCF8EB5A8
S11319D01EBC0DB407FEFDCF8EB5289A0E94120DD1
S11319E08FB7F894282F332780914502813061F016
S11319F081E0809345022FBF4ACB289A85E08093EB
S1131A00BA031092200230CF109245022FBFDF910B
S1131A10CF911F910F91FF90EF90DF90CF90BF90E7
S1131A20AF9008958FB7F894282F332780914502FB
S1131A30882329F08068809345022FBF089581E0B0
S1131A40809345022FBF0E943D08089578941F9209
S1131A500F920FB60F9211242F933F934F935F93DE
S1131A606F937F938F939F93AF93BF93EF93FF9362
S1131A70E6E8F0E080819181208131818FB7F8948C
S1131A809927309358022093570221E02093E202D1
S1131A908FBF0E94120DFF91EF91BF91AF919F9163
S1131AA08F917F916F915F914F913F912F910F9003
S1131AB00FBE0F901F90189578941F920F920FB637
S1131AC00F9211242F933F934F935F936F937F93C0
S1131AD08F939F93AF93BF93EF93FF9380916F0086
S1131AE08D7F80936F0078949FB7F8948091D20291
S1131AF0813019F482E08093D202892F99278FBF15
S1131B000E94120DFF91EF91BF91AF919F918F9120
S1131B107F916F915F914F913F912F910F900FBEE5
S1131B200F901F9018958FB7F894282F3327809122
S1131B304502815080934502803811F02FBF0895EB
S1131B4081E0809345022FBF0E943D0808951F93B2
S1131B508FB7F8949927209145022F5F209345026F
S1131B608FBF80914F02882311F015E023C080912C
S1131B7020028823E1F48091BA03813049F490E093
S1131B808091D202882309F491E0992381F005C061
S1131B90853019F489E090E00CC083E08093200242
S1131BA00E94120D85E080934F0210E003C085E08F
S1131BB090E0182F0E94930D812F99271F9108956B
S1131BC01F93FC018FE3828780911F028F5F8093B4
S1131BD01F0283832FB7F8943327809145028F5FC8
S1131BE0809345022FBF80914F02882311F015E0A6
S1131BF00DC0F093D802E093D70281E080934F02A6
S1131C001092D40286E00E94900010E00E94930D8E
S1131C10812F99271F9108951F93CF93DF93182F36
S1131C20FA01A22F2D3118F086E090E08EC0EA016F
S1131C30219689812181B0E09927582F44273327A1
S1131C40422B532BCA0187749C7C8154984809F415
S1131C50B1E0BB2349F4CA01807390708164986831
S1131C608183892F99278983A35FA0832FB7F89451
S1131C70332780910F02909110022FBF8087892F04
S1131C80992781872FB7F8943327809111022FBFAA
S1131C9099278483158213876683872F99278783DF
S1131CA08FB7F894282F332780911D02882371F46D
S1131CB082E080931D02109214022FBFCF010E9474
S1131CC0E00D9927182F882399F00FC02FBFF093A8
S1131CD04902E09348028FB7F894C82FDD272C2FD0
S1131CE080911D02882399F406C080E00E943D067D
S1131CF0812F99272AC081E080931D021092470208
S1131D0084E00E949000CFBF80E090E01EC08091EC
S1131D104A028F3F89F4E0911302EE2369F010C068
S1131D201092120204C0FF27E65BFD4F108210924E
S1131D30130280E090E002C085E090E02FBF05C070
S1131D40809112028F3F79F7EBCFDF91CF911F91F2
S1131D5008951F93CF93DF93182FEB01E82FFF27EC
S1131D60EE0FFF1FE054FD4F1182108210921802F3
S1131D70E091C002F091C102309721F080912503D7
S1131D8080FF0FC081E08093180203C08DE00E94A1
S1131D9090001123C1F4C65FD240A9F410921A0234
S1131DA012C020812D50332767817727762F66272D
S1131DB086819927682B792BAF0183850E940C0EAD
S1131DC0882339F3E3CFDF91CF911F9108952F92A8
S1131DD03F924F925F926F927F928F929F92AF92B7
S1131DE0BF92CF92DF92EF92FF920F931F93CF9304
S1131DF0DF93CDB7DEB729970FB6F894DEBF0FBED9
S1131E00CDBFD82E26E0821709F4CDC12817A8F03B
S1131E1032E0831709F4B1C0381738F0882371F120
S1131E2041E0841709F0B0C35CC054E0851709F49D
S1131E3059C1581708F487C1B8C06AE0861709F475
S1131E40BAC2681740F088E0D81609F458C28D1554
S1131E5008F44EC306C2ECE08E1741F08E1708F466
S1131E60BFC2FDE08F1709F08FC36CC380912503B7
S1131E70882309F489C340E051E044C380914302BC
S1131E80882361F52091ED023091EE024091EF023A
S1131E905091F002EFB7F894FF27609129027091F6
S1131EA02A0280912B0290912C02E0902603F0905C
S1131EB0270300912803109129036E0D7F1D801FB5
S1131EC0911FEFBF2093ED023093EE024093EF0297
S1131ED05093F002109243020E945E030E94220279
S1131EE03AC00E9422027B018C018FB7F894992793
S1131EF0109251028FBF8091CF0281FF45C3809120
S1131F00C7029091C802A091C902B091CA02A80167
S1131F109701281B390B4A0B5B0BDA01C90120918D
S1131F20CB023091CC024091CD025091CE02281BBD
S1131F30390B4A0B5B0B2F3F6FEF36076FEF4607EA
S1131F406FE7560709F420C3121613061406150684
S1131F502CF0C801B7010E943C0516C32093ED0282
S1131F603093EE024093EF025093F002D09243027A
S1131F70C801B7010E945E0307C32FB7F894332743
S1131F808091DB0280930E0283E080931C022FBFBA
S1131F9080910E02882309F0F7C281E080938B02BE
S1131FA01092F5020E945F02EFC210928B02C09061
S1131FB0D502D090D6028091F502882309F0E4C2BC
S1131FC08FB7F894E82E80911C02833009F041C049
S1131FD080910E028823E9F58091C602882309F0D6
S1131FE0CAC2BEC2EF2DE695E695E695FF274F2DB2
S1131FF05527EA53FD4F9A012770307081E090E035
S113200002C0880F991F2A95E2F780952081282322
S1132010208300931B0212C00F5F1F4F0130110574
S113202011F400E010E0F02E802F0E944B02882370
S1132030C9F60A151B0581F74FEF50E04093DB0208
S11320408FEF80930E0281E080931C0282E00E9455
S11320509000EFBE80911A02882309F095C280E0B7
S113206092E080930303892F992780930203C092FF
S113207005038D2D99278093040386E08093FC0249
S11320801092FD02809301038091C0029091C102DD
S1132090892B09F079C246EF52E05093C102409374
S11320A0C00281E18093F602809118028823B1F086
S11320B01092180224E066E070E086E00E940C0EA4
S11320C09927282F882351F081E0809318021092D9
S11320D0C1021092C002222309F056C281E080930B
S11320E01A0252C22FB7F894332780914702809383
S11320F0140282E080931D022FBF80911402882372
S113210009F042C280914802909149020E94E00D78
S1132110082F1127002309F437C280E00E943D06EE
S1132120209148023091490280911802882309F0D5
S11321302BC26091C0027091C1026217730709F04B
S113214023C2402F0AC280914F0210924F02853061
S113215009F512980E9422026093C7027093C80284
S11321608093C9029093CA0284E690E0A0E0B0E0B4
S11321708093CB029093CC02A093CD02B093CE0275
S11321808091CF028E7F82608093CF0281E00E9493
S11321909000FAC1863009F4F7C1873009F4F4C11C
S11321A080934F02F1C12FB7F894332780914502F1
S11321B08F5F809345022FBF40914F02413081F5DC
S11321C08091D4028F5F8093D402863048F52091A9
S11321D0D7023091D802809150028823C1F490E054
S11321E08091D202882309F491E0992381F03093FD
S11321F04D0220934C02409350028BED91E10E94DA
S1132200FF010E94F10110922A0383E004C085E0DB
S113221080932A0382E080934F020E94930DB4C1FD
S113222010924F020E94930D10912A03E090D7025E
S1132230F090D802F70182858F3309F0A5C180E0C0
S11322400E943D0680911802882309F09DC1609187
S1132250C0027091C1026E157F0509F095C1412F2E
S11322607CC18FB7F894282F33278091DC02882310
S113227009F445C1E091F402FF27EE0FFF1FED5D65
S1132280FD4FA081B1812FBFFD0182858F33B9F04D
S1132290FD01878126819927582F44273327422B14
S11322A0532B8FB7F894992720910F023091100285
S11322B08FBF4217530719F04F5F5F4F21F48FB759
S11322C0F89499278FBF9FB7F8948091F402E82F70
S11322D0FF27EE0FFF1FED5DFD4FB183A0838F5FDE
S11322E08093F402833010F01092F4028091DC02A7
S11322F081508093DC02892F99278FBFB2CF2FB7EB
S11323002983F89420905202309053024090540252
S113231050905502662477248824AEE4AA2EF3E86C
S1132320BF2ECC24DD24EE24FF2400E010E0222D77
S1132330332D442D552D662D772D882D90E00E9448
S11323408A142A833B834C835D836E837F838887CF
S11323509987822E932EA42EB52E2401350100E2F6
S11323600E948815A22EB32EC42ED52EA30192014D
S113237056954795379527952A0D3B1D4C1D5D1D98
S113238057FF05C05F772F5F3F4F4F4F5F4F20933D
S11323905202309353024093540250935502698180
S11323A0862F99278FBF8FB7F89499273093DA0235
S11323B02093D90213C08FB7F89499271092D102B1
S11323C01092D0021092B9031092B8031092220214
S11323D0109221021092BD021092BC028FBFD4C091
S11323E02FB7F894332780915A028093170282E022
S11323F080931E022FBF80911702882309F0C4C066
S1132400209A289A8091BA03882309F075C08EEF28
S113241091E0019701960197E1F716982F9886E0CD
S113242090E0019701960197E1F7169A289883ECBA
S11324308EBD0DB407FEFDCF8EB51EBC0DB407FED8
S1132440FDCF8EB5289A289882EC8EBD0DB407FE78
S1132450FDCF8EB588E08EBD0DB407FEFDCF8EB5E1
S1132460289A8EEF91E0019701960197E1F7289859
S11324708EEC8EBD0DB407FEFDCF8EB58DE48EBD02
S11324800DB407FEFDCF8EB5289A289889EC8EBD31
S11324900DB407FEFDCF8EB587EC8EBD0DB407FEDF
S11324A0FDCF8EB5289A289885EC8EBD0DB407FE15
S11324B0FDCF8EB580E88EBD0DB407FEFDCF8EB581
S11324C0289A10928C028BE080934602289888EC1C
S11324D08EBD0DB407FEFDCF8EB58BE68EBD0DB45B
S11324E007FEFDCF8EB5289A2F9A81E08093BA0318
S11324F080E00E94E70548C00E94120D45C02FBF2E
S113250043C0550F90912503852F8923B9F0E42FFB
S1132510FF27EE0FFF1FE054FD4F20813181118210
S11325201082852F8095982390932503442331F4BA
S1132530265F324031F510921A0223C04F5F4830B3
S113254000F322C080911802E82FFF27EE0FFF1F2F
S1132550E054FD4F6081718141E00E94A90E14C0D6
S113256081E080930E0210921C0280917A008F7792
S113257080937A006ECD80911B02A82EBB24850126
S11325804BCD550F41E0BECF29960FB6F894DEBF70
S11325900FBECDBFDF91CF911F910F91FF90EF90B0
S11325A0DF90CF90BF90AF909F908F907F906F906F
S11325B05F904F903F902F9008958091F1028F3F4C
S11325C0B1F0282F3327F901EB5CFD4F8081809314
S11325D0F1028F3F11F48093C0038FEF80832F3F6C
S11325E031F0822F0E94E70E81E090E0089580E0B0
S11325F090E008951F931FB7F89414BE88E10FB6B6
S1132600F89480936000109260000FBE4EE050E09A
S11326106FEF70E085E392E00E9475168FEF809370
S1132620F1028093C00356985E9854985C98809108
S11326306F008F7D80936F00209A289A279A2F9895
S11326400E9A169A8CE592E090932E0280932D02B6
S1132650109256028AE580934B0281E080938100B8
S113266080E28093B60083E08093B100809184007F
S1132670909185004AE720918400309185002817C5
S1132680390708F44150442311F0C901F4CF909163
S1132690B2008091B2008917E1F320918400309157
S11326A085009091B2008091B2008917E1F3809186
S11326B0840090918500821B930B409635E096959B
S11326C087953A95E1F79093F3028093F202109282
S11326D0B1008091B100809381008091810080934A
S11326E0B6001092B20010928500109284008FEF11
S11326F087BB87B386BB8091B6008571E1F70A9AE0
S1132700099A089A129A119A109A18B88FEF87B9F1
S11327100C981498109285001092840080916F0098
S1132720816080936F0080918100887F82608093B4
S1132730810010927A000E94DD128823E1F78FEF66
S11327408093590280E00E94EE0020910C023091A7
S11327500D022F5F3F4FC901AA27BB278093520266
S113276090935302A0935402B09355028BE293E0EA
S113277090932402809323028F9690932602809351
S1132780250289E893E090932802809327028FEF33
S11327909FEF9093E4028093E3029093E602809388
S11327A0E5029093E8028093E7029093EA02809313
S11327B0E9029093EC028093EB0280910C028295E3
S11327C0807F80931F028FEF80934A021092C6028B
S11327D08091B60080628093B6008091B60081FD3E
S11327E0FCCF82E08093B0008091B60080FDFCCFE6
S11327F083E08093B1008091B60083FDFCCF86EE28
S11328008093B300809170008260809370000E9476
S1132810D2020E94DD128823E1F7812F99278FBF0E
S113282078940E94A70D8FB7F894482F552757C066
S113283080917000992783709070892B19F4E5E0DA
S1132840F0E014C08091B6008A71E1F78091B30082
S11328509091B200891B8C3038F08091B200853F92
S113286018F4E3E0F0E002C0E2E0F0E080916E00F2
S1132870867009F580916F008E72E9F48091710081
S11328808E72C9F40CB407FC16C08091C100887123
S113289091F48091C900887171F48091BC0082FD2B
S11328A00AC080917A0087FF03C081E090E005C0F0
S11328B085E090E002C080E090E023B78E1708F432
S11328C0E82FFF27E453FF4FE491207F2160E22BA0
S11328D0E3BF78948895F89483B78E7F83BF809103
S11328E0F1028F3F09F4A4CF282F3327F901EB5CC1
S11328F0FD4F80818093F1028F3F11F48093C003D8
S11329008FEF80832F3F09F493CF4FBF822F0E9414
S1132910E70E89CFACE2B0E0E0E9F4E10C943E16B6
S1132920222E332E442E552E662E772E882E992E47
S1132930FE013196A8E01192AA95E9F729823A821C
S11329404B825C826D827E828F829886FE013996EC
S1132950B8E01192BA95E9F7A986BA86CB86DC86E7
S1132960ED86FE860F87188B89819A81AB81BC81A5
S113297089A79AA7ABA7BCA77C018D018FEF9FEF16
S1132980A0E0B0E0E822F9220A231B2389A59AA536
S1132990ABA5BCA51D014424552489859A85AB8526
S11329A0BC858DA39EA3AFA3B8A75C016D018FEF77
S11329B09FEFA0E0B0E0A822B922CA22DB228DA1B9
S11329C09EA1AFA1B8A53D0188249924C801B701EF
S11329D0A60195010E941F1669A37AA38BA39CA349
S11329E0C801B701A40193010E941F167B018C0149
S11329F0C201B101A60195010E941F165B016C0181
S1132A00C201B101A40193010E941F163B014C01B4
S1132A10EA0CFB1C0C1D1D1D89A19AA1ABA1BCA134
S1132A209D01442755272E0D3F1D401F511F2A1578
S1132A303B054C055D0540F480E090E0A1E0B0E08A
S1132A40680E791E8A1E9B1ECA01AA27BB27860D03
S1132A50971DA81DB91D8D8F9E8FAF8FB8A3A90197
S1132A603327222789A19AA1ABA1BCA1A070B07081
S1132A70280F391F4A1F5B1F298F3A8F4B8F5C8F9A
S1132A80A98CBA8CCB8CDC8CED8CFE8C0F8D18A1B0
S1132A90FE01719698E011929A95E9F7ED8AFE8A03
S1132AA00F8B188F2D813E814F8158856DA17EA19A
S1132AB08FA198A50E941F163B014C012D853E85D0
S1132AC04F85588969A57AA58BA59CA50E941F16D8
S1132AD02D893E894F89588D260F371F481F591F4E
S1132AE0260D371D481D591D2D8B3E8B4F8B588F3E
S1132AF06D887E888F88988C2A2D3B2D4C2D5D2DDA
S1132B00662D772D882D992DE2E1AC960C945A16FA
S1132B10A0E1B0E0EEE8F5E10C943E16222E332E4F
S1132B20442E552E662E772E882E992E002309F4D6
S1132B3066C088E0FE01319611928A95E9F72983EF
S1132B403A834B835C836D837E838F829887E0E234
S1132B50E01B1E16CCF52D813E814F815885602FD8
S1132B60772767FD7095DA01C901062E04C0B69572
S1132B70A795979587950A94D2F78D879E87AF87F7
S1132B80B88B04C0220F331F441F551FEA95D2F798
S1132B9089819A81AB81BC8104C0B695A79597952C
S1132BA087956A95D2F7282B392B4A2B5B2B2987DB
S1132BB03A874B875C8729843A844B845C846D8490
S1132BC07E848F8498881BC01D861E861F86188A63
S1132BD02E2F332727FD3095309521953F4F8D813A
S1132BE09E81AF81B88504C0B695A79597958795C2
S1132BF02A95D2F789879A87AB87BC87DCCF222DA9
S1132C00332D442D552D662D772D882D992DE2E1F8
S1132C1060960C945A16AA1BBB1B51E107C0AA1F4D
S1132C20BB1FA617B70710F0A61BB70B881F991F69
S1132C305A95A9F780959095BC01CD010895629F9E
S1132C40D001739FF001829FE00DF11D649FE00DA0
S1132C50F11D929FF00D839FF00D749FF00D659F01
S1132C60F00D9927729FB00DE11DF91F639FB00D00
S1132C70E11DF91FBD01CF01112408952F923F9248
S1132C804F925F926F927F928F929F92AF92BF9278
S1132C90CF92DF92EF92FF920F931F93CF93DF9324
S1132CA0CDB7DEB7CA1BDB0B0FB6F894DEBF0FBE81
S1132CB0CDBF09942A88398848885F846E847D84CE
S1132CC08C849B84AA84B984C884DF80EE80FD80D0
S1132CD00C811B81AA81B981CE0FD11D0FB6F89446
S1132CE0DEBF0FBECDBFED010895DC0101C06D93C1
S10D2CF041505040E0F70895FFCF73
S1132CFA544F535F4E4F44455F494400010001015C
S10D2D0A0022FFFFFFFFFFFF01009E
S9030000FC
