:100000000C9469000C9488000C9488000C9488006F
:100010000C9488000C9488000C9488000C94880040
:100020000C9488000C9488000C9488000C94880030
:100030000C9488000C94DE030C9488000C94E3026A
:100040000C949E0B0C94D40B0C949A030C94A50363
:100050000C94B0030C9488000C9488000C948800D5
:100060000C94F7020C9488000C9488000C9488007F
:100070000C9488000C9488000C9488000C948800E0
:100080000C9488000C9488000C9488000C948800D0
:100090000C9488000C9488000C9488000C948800C0
:1000A0000C9488000C9488000C9488000C948800B0
:1000B0000C9488000C9488000C9488000C948800A0
:1000C0000C9488000C9488000C94880000020E06A2
:1000D0000C0411241FBECFEFD1E2DEBFCDBF12E072
:1000E000A0E0B2E0E0E7F9E200E00BBF02C0079059
:1000F0000D92A831B107D9F713E0A8E1B2E001C031
:100100001D92AC3BB107E1F70E9439110C94B71472
:100110000C9400008FB7F894992708958FBF089525
:10012000282F9FB7F894E82FFF27ED5CFD4F8081C3
:100130008F3F81F4E091B403E21771F40BC0209378
:10014000150304C0FF27ED5CFD4F20832093B4030B
:1001500020E007C025E005C0809115038F3F91F78F
:10016000EECF892F99278FBF822F99270895882353
:1001700019F08CB5806402C08CB58F7B8CBD08955E
:10018000882319F08CB5806802C08CB58F778CBD40
:1001900008950F931F9380E00E94B7000FB7F89463
:1001A0001127229A2398219A209A8CB580618CBDC0
:1001B00080E00E94C0008CB5877F8CBD8CB58B7FA2
:1001C0008CBD81E00E94B7008DB581608DBD8CB57E
:1001D0008C7F8CBD0FBF1F910F9108950F931F93BC
:1001E000CF93DF93182F0FB7F89480911C028823C8
:1001F00011F40E94C900802F99278FBF8FB7F89400
:10020000C82FDD272C2F80911C02882361F481E008
:1002100080931C021093830289E00E949000CFBF5C
:1002200080E090E021C0E12FFF27EE57FD4F808155
:100230008F3F89F4E0911502E11789F40CC0109307
:10024000140204C0FF27EE57FD4F108310931502D0
:1002500080E090E002C085E090E02FBF05C0809173
:1002600014028F3F79F7EBCFDF91CF911F910F9160
:100270000895FB0121E030E002C0220F331F8A9570
:10028000E2F784A5822B84A708958FB7F894209174
:10029000EA023091EB024091EC025091ED02E091C4
:1002A0008400F0918500B09B08C02F5F3F4F4F4FF7
:1002B0005F4FE0918400F091850099278FBFC901BD
:1002C000772766279F0144275527622B732B842BA2
:1002D000952B0895FC0182819927982F88272181E9
:1002E0003327822B932B25E0969587952A95E1F766
:1002F000817090700895AC01EFB7F894209184005C
:1003000030918500C901841B950B039686179707CA
:1003100020F0B9016D5F7F4F02C0640F751F61153A
:10032000710511F461E070E06150704070938900D4
:100330006093880082E086BB80916F00826080932A
:100340006F008E2F99278FBF089580931E038823F7
:1003500011F484E001C081E08093780284E00E947F
:1003600090000895CF93DF93EC010E946A018823E7
:1003700039F18A8129819927982F88273327822B61
:10038000932B87749C7C81549848D1F48F814E8143
:100390002FB7F894332760910E0270910F022FBF90
:1003A00020E09927982F88275527842B952B86178F
:1003B000970709F021E081E02827822F992702C0C2
:1003C00080E090E0DF91CF910895FB0121E030E0E3
:1003D00002C0220F331F8A95E2F784A58223992752
:1003E0000895EF92FF920F931F937C018FB7F894BB
:1003F00099270091FE021091FF020F5E1E4F10938D
:10040000FF020093FE02015111408FBF86E00E945F
:100410009000C801B7010E9446148A5D9E4F1F914B
:100420000F91FF90EF9008957FB7F8946091B2001C
:1004300020912E0230912F024091300250913102D2
:10044000B99B11C08091B3009091B200280F311D6B
:10045000411D511D2F5F3F4F4F4F5F4F290F311DE2
:10046000411D511D04C0260F311D411D511D872FF7
:1004700099278FBFCA01B9010895DF92EF92FF92C9
:100480000F931F938FB7F894282F3327D22E909174
:10049000B3008091B20047B3981711F041FF02C03A
:1004A0002FBF71C080917A028823E1F10E9414026B
:1004B000E0902702F09028020091290210912A0270
:1004C00020911A0330911B0340911C0350911D038E
:1004D0006E197F09800B910B6217730784079507CC
:1004E00020F010927A0271E01EC02E0D3F1D401FB9
:1004F000511F80912E0290912F02A0913002B09155
:100500003102281B390B4A0B5B0B273E3105410595
:10051000510540F4822F223010F070E005C070E0E9
:1005200082E002C070E086EE682F61508091B600D4
:1005300083FDFCCF8091B200681709F46F5F2091B2
:100540002E0230912F024091300250913102DA0197
:10055000C9010196A11DB11D860F911DA11DB11DDF
:1005600082179307A407B50710F4622F6095809156
:10057000B60083FDFCCF6093B300DFBE772319F094
:1005800080E00E9490001F910F91FF90EF90DF900C
:100590000895AFB7F894BB27E1E0E0937A02609347
:1005A0002702709328028093290290932A022093B5
:1005B0001A0330931B0340931C0350931D03AFBFDA
:1005C0000E943D0208951F920F920FB60F921124C0
:1005D0008F938091B0008093B0008091B60081FD30
:1005E000FCCF8F910F900FBE0F901F9018951F9208
:1005F0000F920FB60F9211240F931F932F933F93D7
:100600004F935F936F937F938F939F93AF93BF931A
:10061000CF93DF93EF93FF932EB5E091F702F09124
:10062000F802309739F08091E4029091E502E80FEA
:10063000F91F20838091E4029091E5020196909346
:10064000E5028093E40280E00E94C000C091E402D1
:10065000D091E50220911F0230912002C217D307EA
:1006600008F042C00091AC031091AD034091F70235
:100670005091F802CE010A962817390708F4C901EB
:10068000DA01AC0FBD1FF801EC0FFD1F9C012150DA
:10069000304015C00115110531F080818EBD0DB4BB
:1006A00007FEFDCF04C01EBC0DB407FEFDCF8EB506
:1006B0004115510509F08C93219611963196C21778
:1006C000D30740F381E00E94C0000115110531F00D
:1006D0000C0F1D1FF80180818EBD01C01EBCD09380
:1006E000E502C093E40211C01092F8021092F702E2
:1006F0001092AD031092AC031092200210921F02D0
:100700001092E5021092E4028EB5FF91EF91DF9115
:10071000CF91BF91AF919F918F917F916F915F9199
:100720004F913F912F911F910F910F900FBE0F90FE
:100730001F90189578941F920F920FB60F92112464
:100740000F900FBE0F901F90189578941F920F92E4
:100750000FB60F9211240F900FBE0F901F90189597
:1007600078941F920F920FB60F9211242F933F93FC
:100770008F939F93AF93BF932FB7F89433278091B4
:10078000EA029091EB02A091EC02B091ED02019689
:10079000A11DB11D8093EA029093EB02A093EC029D
:1007A000B093ED022FBFBF91AF919F918F913F9179
:1007B0002F910F900FBE0F901F9018951F920F92C0
:1007C0000FB60F9211242F933F934F935F936F9324
:1007D0007F938F939F93AF93BF93EF93FF938091FA
:1007E000B0008093B0008091B60081FDFCCF809175
:1007F000B30099270196AA27BB2720912E0230919A
:100800002F024091300250913102280F391F4A1FA8
:100810005B1F20932E0230932F024093300250939F
:10082000310278940E943D02FF91EF91BF91AF9108
:100830009F918F917F916F915F914F913F912F91F8
:100840000F900FBE0F901F90189521E02093840207
:100850002093F9022091840030918500BC01C901E8
:100860000E947B0108950F931F93982F1FB7F89450
:1008700080911C02823099F580911602891779F5D2
:100880008091140220E030E08F3F11F421E030E04D
:10089000232BF1F49FEF909316028F3F19F42FEF63
:1008A00030E00DC0282F3327F901EE57FD4F80812E
:1008B000809314028F3F11F490931502908320933C
:1008C000830281E080931C0289E00E94900005C0B1
:1008D0008FEF8093160210921C0201E001C000E02D
:1008E000812F99278FBF1FB7F89480911C0288230E
:1008F00011F40E94B700812F99278FBF90E001303B
:1009000009F491E081E09827892F99271F910F9191
:1009100008951F93982F1FB7F89480911B0282307F
:1009200099F580911302891779F58091110220E0E1
:1009300030E08F3F11F421E030E0232BF1F49FEF02
:10094000909313028F3F19F42FEF30E00DC0282F42
:100950003327F901EC58FD4F8081809311028F3FBE
:1009600011F49093120290832093420281E08093CD
:100970001B0282E00E94900005C08FEF809313025B
:1009800010921B0221E001C020E0812F99278FBF28
:1009900090E0213009F491E081E09827892F992790
:1009A0001F9108958FB7F894282F3327922F8091A5
:1009B0001602882331F480911C02823011F42FBF7B
:1009C00013C09FBF8FB7F894282F332780911C0244
:1009D000882369F482E080931C02109216022FBFD4
:1009E0000E94C900209A289A81E090E008952FBFC4
:1009F00080E00E94EE0080E090E00895809178020F
:100A0000823031F481E08093780284E00E9490008B
:100A100008954F925F926F927F928F929F92AF92C2
:100A2000BF92CF92DF92EF92FF920F931F93CF93DB
:100A3000DF932C0180911E02882309F083C18091ED
:100A4000AE03853009F07EC10E94D204882309F4E8
:100A500079C180910603882309F074C1B20182E054
:100A60000E94E501882311F490E003C0F20196A5ED
:100A70009F708091B402981781F09093B4022898E7
:100A800085EC8EBD0DB407FEFDCF8EB590689EBD82
:100A90000DB407FEFDCF8EB5289AE201219689811B
:100AA000F201218140E09927982F88273327822B54
:100AB000932B87749C7C8154984809F441E044232B
:100AC00001F1289886E88EBD0DB407FEFDCF8EB5E6
:100AD0001EBC0DB407FEFDCF8EB5289A99278F71E5
:100AE000907020917F0240917502240F312D311DAD
:100AF00043E0359527954A95E1F7281739070CF417
:100B000021C1289882EC8EBD0DB407FEFDCF8EB5B5
:100B100089E08EBD0DB407FEFDCF8EB5289A0E94E8
:100B200045017B018C01B20184E00E94E50188232C
:100B300019F4E0E0F0E006C0D2018C918550F2019A
:100B4000E80FF11D289881E88EBD0DB407FEFDCF9A
:100B50008EB51EBC0DB407FEFDCF8EB5289A8F71E1
:100B6000893079F0289882EC8EBD0DB407FEFDCF58
:100B70008EB586E08EBD0DB407FEFDCF8EB5289AEA
:100B8000E1C08FB7F89499272F9A20918400309173
:100B900085008FBF2F98289880E68EBDD2019C914A
:100BA0000DB407FEFDCF8EB59EBD792F7250773004
:100BB00010F4672F01C067E0DE01962F4D910DB450
:100BC00007FEFDCF8EB54EBD9150C1F76150C60FE7
:100BD000D11D6F5F21962E193F092E553F4F3901C8
:100BE000882477FC8094982C6E0C7F1C801E911EAC
:100BF000309719F4972F961B42C02081E1808281A3
:100C0000A3809927AA27BB27BA2FA92F982F882717
:100C1000332744275527522F442733272227FF24E1
:100C2000002711278701FF24EE242E293F29402B7E
:100C3000512BBB24CC24DD242A293B294C295D29B6
:100C4000822B932BA42BB52B86199709A809B909D8
:100C50008383292F3A2F4B2F552722839D01442729
:100C6000552721838B2F9927AA27BB278083C2CFA3
:100C700028810DB407FEFDCF21968EB52EBD915073
:100C8000B8F70DB407FEFDCF8EB5289A289882ECF0
:100C90008EBD0DB407FEFDCF8EB586E08EBD0DB4C2
:100CA00007FEFDCF8EB5289A3097D1F12081E180E3
:100CB0008281A3809927AA27BB27BA2FA92F982F13
:100CC0008827332744275527522F442733272227A5
:100CD000FF24002711278701FF24EE242E293F2916
:100CE000402B512BBB24CC24DD242A293B294C2921
:100CF0005D29822B932BA42BB52B860D971DA81D48
:100D0000B91D8383292F3A2F4B2F552722839D010D
:100D10004427552721838B2F9927AA27BB27808318
:100D2000B20181E00E943901F20160A671A682A69B
:100D300093A686E08093AE0384E080931E0280E059
:100D400090E002C085E090E0DF91CF911F910F917C
:100D5000FF90EF90DF90CF90BF90AF909F908F90DB
:100D60007F906F905F904F900895AF92BF92CF9217
:100D7000DF92EF92FF920F931F93CF93DF938091B7
:100D80000603882309F402C10E94D204882309F4CF
:100D9000FDC08FB7F8949927C0918002D09181024D
:100DA0008FBF1092060328988FE88EBD0DB407FE02
:100DB000FDCF8EB51EBC0DB407FEFDCF8EB5289AB3
:100DC000982F80911E02833011F0873031F485E036
:100DD0008093AE0388E080931E02A92EBB24A2FE5E
:100DE00063C080911E02863019F410921E0203C067
:100DF000882309F059C0943009F045C0289886E846
:100E00008EBD0DB407FEFDCF8EB51EBC0DB407FE22
:100E1000FDCFFEB4289A2FE1F22280917502982F1F
:100E200096959695EF2DE91B8E0F80937502009194
:100E30002B0210912C02F80184A58B7F84A7B801A6
:100E400083E00E943901F801F6A60E9445017B016A
:100E50008C01C0902B02D0902C02B60181E00E9440
:100E60003901CE19DF092797CE01AA2797FDA09552
:100E7000BA2F8E0D9F1DA01FB11FF60180A791A74D
:100E8000A2A7B3A70EC0E0912B02F0912C0284A57B
:100E9000877F84A7E0912B02F0912C0284A58D7F9F
:100EA00084A785E080931E02A3FE70C080911E027D
:100EB000843009F04EC085E08093AE0310921E028C
:100EC00080912D02833019F410922D025FC0C091E1
:100ED000B503D091B603CE010E946A01882389F13F
:100EE0008A8129819927982F88273327822B932B52
:100EF00087749C7C8154984821F58F812E81992795
:100F0000982F88273327822B932B8F5F9F4FC9F011
:100F100090E08091F902882309F491E0992389F007
:100F200012E01093840281E08093F90280918400A2
:100F30009091850069E973E00E947B0110932D0276
:100F400025C010922D021092790280E00E94A50126
:100F50001DC08530D9F420917F02289886E88EBD87
:100F60000DB407FEFDCF8EB51EBC0DB407FEFDCF40
:100F70008EB5289A8F71922F96959695891B280F7A
:100F800020937F0289E080931E0208C090911E0288
:100F9000992309F4E5C2993009F012C2289880E239
:100FA0008EBD0DB407FEFDCF8EB51EBC0DB407FE81
:100FB000FDCF8EB5482F5527433008F496C3842FB4
:100FC00099278A970CF091C31EBCE0912B02F091F7
:100FD0002C024083542F5250573010F4452F01C03B
:100FE00047E0DF011196242FFD0160E070E00DB4B1
:100FF00007FEFDCF8EB51EBC992781936827062E6C
:101000006295607F6025072E762F62956F700626A9
:10101000669576276727660F660F660F6025215055
:1010200031F74150A40FB11D4F5F1196E0912B0293
:10103000F0912C02818190E08770823009F491E078
:10104000992349F020E030E080912D02823081F434
:1010500021E030E00DC08FB7F894282F332790E0BF
:1010600080910003833008F491E02FBF292F3327AC
:10107000232B09F45CC0952F941B18C00DB407FEF8
:10108000FDCF8EB51EBC8C938D916827062E629580
:10109000607F6025072E762F62956F700626669515
:1010A00076276727660F660F660F6025915030F729
:1010B0000DB407FEFDCF8EB51EBC9B012827022E66
:1010C0002295207F2025032E322F22952F70022675
:1010D000269532272327220F220F220F20250DB419
:1010E00007FEFDCF8EB51EBC2827022E2295207F3D
:1010F0002025032E322F22952F7002262695322787
:101100002327220F220F220F20250DB407FEFDCF2B
:101110008EB5E0912B02F0912C0285A7289A15E05C
:101120001093AE0310921E02232B31F015C20DB4A2
:1011300007FEFDCF8EB5D9C2E0902B02F0902C02B5
:1011400067010894C11CD11CF701818190E0282F10
:101150003327277030702230310509F491E08091F7
:101160002D02992321F1823009F025C1F7019381E5
:10117000E091B503F091B6038381981709F01BC184
:101180002230310509F017C180916F008D7F809367
:101190006F001092F902BF0180E00E9439011092A5
:1011A0002D021092790280E00E94A50104C18823DB
:1011B000C9F4C7010E94B2018823A1F01093B502BF
:1011C00082E08093B6021092B702F7018381809388
:1011D000B80285EB92E00E940905882319F483E0A8
:1011E00080932D020091840010918500C7010E9418
:1011F000B201882311F0045E1C4F1093E7020093A4
:10120000E60280918400909185009801281B390B9B
:1012100012161306A4F480917902882369F490E0F1
:101220008091F902882309F491E0992341F0C901E2
:101230000E94250480E801C0806880937902F6014D
:10124000808527819927582F44273327422B532BFA
:1012500080913202282F3327F901EE0FFF1FE95F3B
:10126000FC4F808191817091FA028417950769F48F
:10127000F901E155FC4F8081871709F467C0872F7A
:101280008F5F8093FA0280831DC000E010E080E051
:1012900090E0C7E0D3E0EFEAF3E0DF01682F9C01C4
:1012A000888199818417950779F42093320290916F
:1012B000FA028C91891709F449C0892F8F5F8093B6
:1012C000FA028C9300E829C08081972F981B091798
:1012D00010F4092F122F6F5FC90101961196229603
:1012E000319685309105D1F66530B9F4109332020C
:1012F000A12FBB27FD01EE0FFF1FE95FFC4F5183BC
:1013000040838091FA028F5F8093FA02FD01E155DC
:10131000FC4F8083A954BC4F1C929091FA02892FF4
:101320008F778F3779F40F3768F0EFEAF3E0292FE2
:10133000207880818F6789132083319683E0E43B96
:10134000F807B9F780913202282F3327F6019281EE
:10135000A22FBB27FD01E954FC4F808180FF07C00D
:10136000FD01EF5FFC4F8081981729F102C0816079
:101370008083AF5FBC4F9C93DFB6F89480910003ED
:101380008330B0F4E0911803E80FE33008F0E35045
:10139000FF27EE0FFF1FEF5DFD4F00811181F182EE
:1013A000E0828F5F8093000385E00E9490007801C7
:1013B0008D2D99278FBFF0922C02E0922B02C3C093
:1013C000892F8150833008F09CC081508230E0F436
:1013D0003091AE033130C1F420E08091F9028823CE
:1013E00009F421E0222381F02F9883E08093840286
:1013F0003093F90280918400909185006BE273E054
:101400000E947B0182E068C0933009F042C0809165
:10141000AE03833009F097C00E94D2048823C9F13B
:1014200028988FE88EBD0DB407FEFDCF8EB51EBC8B
:101430000DB407FEFDCF8EB5289A8091810080649F
:101440008093810080E286BB80916F0080628093F0
:101450006F0090914102289888EC8EBD0DB407FE74
:10146000FDCF8EB590669EBD0DB407FEFDCF8EB547
:10147000289A289882EC8EBD0DB407FEFDCF8EB55C
:1014800086E08EBD0DB407FEFDCF8EB5289A84E0B0
:1014900023C080911E028150823000F58091AE03FE
:1014A0008530E1F40E94D2048823C1F0289882ECB0
:1014B0008EBD0DB407FEFDCF8EB583E08EBD0DB49D
:1014C00007FEFDCF8EB5289A80916F008F7D8093A7
:1014D0006F001092060383E08093AE0390911E028A
:1014E000913041F48091AE038330B1F52F9A9093FF
:1014F000AE0325C0923039F58091AE03833061F59B
:101500001EC0973001F50E94D2048823E1F090912B
:101510004102289888EC8EBD0DB407FEFDCF8EB534
:1015200090669EBD0DB407FEFDCF8EB5289A8091C2
:10153000AE03853021F484E08093AE0304C088E0DC
:1015400080931E0204C080911E02883029F41092FC
:101550001E0283E00E94900080911E02882309F5FC
:101560008091AE038530D1F4809106038823B1F4D5
:1015700080912D02882391F480917902882371F45F
:1015800090E08091F902882309F491E0992331F0E9
:101590000E94FE0480911E02882319F487E00E94B5
:1015A00090008091F902823009F092C01092F90205
:1015B000F0908402F2E0FF1609F466C023E0F21610
:1015C00009F46AC081E0F81609F082C02091E602B1
:1015D0003091E702809184009091850040917902DA
:1015E000403829F4109279020E94FE0471C08901EA
:1015F000081B190B47FF03C010161106ECF0C09131
:101600007602D091770280912D028823A9F4CE0131
:101610000E9409059927882351F48CA58E7F8CA7F9
:10162000F0922D02D093B603C093B50329C0992739
:10163000F82E882329F102C065E0F62E2091790268
:10164000822F99278F77019759F420782260209371
:10165000790280E198E00E94F1010E94250438C0DF
:1016600027FF0AC0101611063CF480E88093790227
:10167000C8010E94250402C0109279028F2D09C072
:1016800083E08093790224C010922D021092790297
:1016900080E00E94A5011CC08091AE03823019F445
:1016A000F092AE0313C080911E02863079F410923E
:1016B0001E02289881E88EBD0DB407FEFDCF8EB5C1
:1016C0001EBC0DB407FEFDCF8EB5289A0E948A0B72
:1016D0008FB7F894282F332780914002813061F032
:1016E00081E0809340022FBF4ACB289A85E0809307
:1016F000AE0310921E0230CF109240022FBFDF9136
:10170000CF911F910F91FF90EF90DF90CF90BF90FE
:10171000AF9008958FB7F894282F33278091400217
:10172000882329F08068809340022FBF089581E0CC
:10173000809340022FBF0E94B506089578941F92AF
:101740000F920FB60F9211242F933F934F935F93F5
:101750006F937F938F939F93AF93BF93EF93FF9379
:10176000E6E8F0E080819181208131818FB7F894A3
:101770009927309381022093800221E02093060371
:101780008FBF0E948A0BFF91EF91BF91AF919F9104
:101790008F917F916F915F914F913F912F910F901A
:1017A0000FBE0F901F90189578941F920F920FB64E
:1017B0000F9211242F933F934F935F936F937F93D7
:1017C0008F939F93AF93BF93EF93FF9380916F009D
:1017D0008D7F80936F0078949FB7F8948091F90281
:1017E000813019F482E08093F902892F99278FBF05
:1017F0000E948A0BFF91EF91BF91AF919F918F91C2
:101800007F916F915F914F913F912F910F900FBEFC
:101810000F901F9018958FB7F894282F3327809139
:101820004002815080934002803811F02FBF08950C
:1018300081E0809340022FBF0E94B50608951F9358
:101840008FB7F8949927209140022F5F2093400290
:101850008FBF80917802882311F015E023C080911A
:101860001E028823E1F48091AE03813049F490E0B8
:101870008091F902882309F491E0992381F005C051
:10188000853019F489E090E00CC083E080931E025B
:101890000E948A0B85E08093780210E003C085E007
:1018A00090E0182F0E940B0C812F99271F9108950B
:1018B0001F93FC018FE3828780911D028F5F8093CD
:1018C0001D0283832FB7F8943327809140028F5FE6
:1018D000809340022FBF80917802882311F015E099
:1018E0000DC0F093FD02E093FC0281E0809378024A
:1018F0001092FB0284E00E94900010E00E940B0C0A
:10190000812F99271F9108951F93CF93DF93182F4D
:10191000FA01A22F2D3118F086E090E08EC0EA0186
:10192000219689812181B0E09927582F44273327B8
:10193000422B532BCA0187749C7C8154984809F42C
:10194000B1E0BB2349F4CA01807390708164986848
:101950008183892F99278983A35FA0832FB7F89468
:10196000332780910E0290910F022FBF8087892F1D
:10197000992781872FB7F8943327809110022FBFC2
:1019800099278483158213876683872F99278783F6
:101990008FB7F894282F332780911B02882371F486
:1019A00082E080931B02109213022FBFCF010E948E
:1019B000580C9927182F882399F00FC02FBFF09348
:1019C0004402E09343028FB7F894C82FDD272C2FF1
:1019D00080911B02882399F406C080E00E9489044C
:1019E000812F99272AC081E080931B021092420226
:1019F00082E00E949000CFBF80E090E01EC0809106
:101A000074028F3F89F4E0911202EE2369F010C056
:101A10001092110204C0FF27EC58FD4F1082109263
:101A2000120280E090E002C085E090E02FBF05C088
:101A3000809111028F3F79F7EBCFDF91CF911F910A
:101A40000895EF92FF920F931F93E091F602E1FF4A
:101A50007CC02091EE023091EF024091F002509153
:101A6000F102E090F202F090F3020091F402109182
:101A7000F502621B730B840B950B6E157F058007B7
:101A8000910708F462C0E0FF04C0ED7FE093F60226
:101A90000CC02E0D3F1D401F511F2093EE023093AE
:101AA000EF024093F0025093F1022091180230911E
:101AB00019022F5F3F4F3093190220931802809133
:101AC0001A02882309F041C080E092E0809352021C
:101AD000892F99278093510220935402832F9927AD
:101AE000809353028CE080934B0210924C0286E06C
:101AF000809350028091E8029091E902892B29F5A8
:101B000045E452E05093E9024093E80281E180937A
:101B10004502809117028823A9F01092170224E051
:101B20006CE070E086E00E94840C9927282F8823BF
:101B300049F081E0809317021092E9021092E802C6
:101B4000222319F481E080931A0281E00E94900020
:101B50001F910F91FF90EF9008951F93CF93DF9304
:101B6000182FEB01E82FFF27EE0FFF1FE851FD4F65
:101B70001182108210921702E091E802F091E902BE
:101B8000309721F08091190380FF0FC081E080938E
:101B9000170203C08BE00E9490001123C1F4C554CA
:101BA000D240A9F410921A0212C020812D5033277E
:101BB00067817727762F662786819927682B792B6F
:101BC000AF0183850E94840C882339F3E3CFDF9132
:101BD000CF911F9108952F923F924F925F926F92F3
:101BE0007F928F929F92AF92BF92CF92DF92EF92AD
:101BF000FF920F931F93CF93DF93CDB7DEB7299753
:101C00000FB6F894DEBF0FBECDBFD82E25E08217E9
:101C100009F477C12817B0F032E0831709F4B3C094
:101C2000381738F0882381F141E0841709F0EBC2BE
:101C30005EC053E0851709F4D6C064E0861709F04A
:101C4000E2C201C188E0D81609F405C28D1548F03A
:101C5000E6E0DE1609F4A3C1F7E0DF1609F0D3C20F
:101C600097C22AE0D21641F0D21608F409C23BE02E
:101C7000D31609F0C8C2B6C280911903882309F4AB
:101C8000C2C240E051E08DC280913F02882361F5DD
:101C900020911103309112034091130350911403CA
:101CA000EFB7F894FF276091270270912802809186
:101CB000290290912A02E0901A03F0901B030091F0
:101CC0001C0310911D036E0D7F1D801F911FEFBF20
:101CD0002093110330931203409313035093140382
:101CE00010923F020E94C9020E9414023AC00E9450
:101CF00014027B018C018FB7F894992710927A0215
:101D00008FBF8091F60281FF7EC28091EE0290919A
:101D1000EF02A091F002B091F102A8019701281BF7
:101D2000390B4A0B5B0BDA01C9012091F2023091A9
:101D3000F3024091F4025091F502281B390B4A0B33
:101D40005B0B2F3F6FEF36076FEF46076FE75607C6
:101D500009F459C212161306140615062CF0C80110
:101D6000B7010E94210D4FC220931103309312033B
:101D70004093130350931403D0923F02C801B7015C
:101D80000E94C90240C28FB7F8949927209142025D
:101D900020931302D0921B028FBF809113028823DD
:101DA00009F031C280914302909144020E94580C84
:101DB000082F1127002309F426C280E00E9489041D
:101DC000209143023091440280911702882309F048
:101DD0001AC26091E8027091E9026217730709F074
:101DE00012C2402F0AC28091780210927802853088
:101DF00009F512980E9414026093EE027093EF02AC
:101E00008093F0029093F10284E690E0A0E0B0E0CD
:101E10008093F2029093F302A093F402B093F50240
:101E20008091F6028E7F82608093F60281E00E94AC
:101E30009000E9C1863009F4E6C1873009F4E3C1B6
:101E400080937802E0C12FB7F89433278091400245
:101E50008F5F809340022FBF40917802413081F51F
:101E60008091FB028F5F8093FB02863048F52091C2
:101E7000FC023091FD02809179028823C1F490E048
:101E80008091F902882309F491E0992381F030933D
:101E9000770220937602409379028BED91E10E94C4
:101EA000F1010E94250410921E0383E004C085E026
:101EB00080931E0382E0809378020E940B0CA3C1E2
:101EC000109278020E940B0C10911E03E090FC020D
:101ED000F090FD02F70182858F3309F094C180E014
:101EE0000E94890480911702882309F08CC16091B7
:101EF000E8027091E9026E157F0509F084C1412F57
:101F00007CC18FB7F894282F332780910003882352
:101F100009F445C1E0911803FF27EE0FFF1FEF5DA5
:101F2000FD4FA081B1812FBFFD0182858F33B9F0B4
:101F3000FD01878126819927582F44273327422B7B
:101F4000532B8FB7F894992720910E0230910F02EE
:101F50008FBF4217530719F04F5F5F4F21F48FB7C0
:101F6000F89499278FBF9FB7F89480911803E82FB2
:101F7000FF27EE0FFF1FEF5DFD4FB183A0838F5F43
:101F800080931803833010F010921803809100039F
:101F9000815080930003892F99278FBFB2CF2FB72D
:101FA0002983F89420907B0230907C0240907D023F
:101FB00050907E026624772488242EE4A22E93E893
:101FC000B92ECC24DD24EE24FF2400E010E0222DE5
:101FD000332D442D552D662D772D882D90E00E94B0
:101FE000C5122A833B834C835D836E837F838887FE
:101FF0009987822E932EA42EB52E2401350100E25E
:102000000E94C313A22EB32EC42ED52EA30192017B
:1020100056954795379527952A0D3B1D4C1D5D1DFF
:1020200057FF05C05F772F5F3F4F4F4F5F4F2093A4
:102030007B0230937C0240937D0250937E02698143
:10204000862F99278FBF8FB7F89499273093FF0277
:102050002093FE0213C08FB7F89499271092F802CC
:102060001092F7021092AD031092AC03109220026E
:1020700010921F021092E5021092E4028FBFC3C0BB
:102080002FB7F8943327809183028093160282E061
:1020900080931C022FBF80911602882309F0B3C0E1
:1020A000209A289A8091AE03882309F075C08EEF9C
:1020B00091E0019701960197E1F716982F9886E035
:1020C00090E0019701960197E1F7169A289883EC22
:1020D0008EBD0DB407FEFDCF8EB51EBC0DB407FE40
:1020E000FDCF8EB5289A289882EC8EBD0DB407FEE0
:1020F000FDCF8EB588E08EBD0DB407FEFDCF8EB549
:10210000289A8EEF91E0019701960197E1F72898C0
:102110008EEC8EBD0DB407FEFDCF8EB58DE48EBD69
:102120000DB407FEFDCF8EB5289A289889EC8EBD98
:102130000DB407FEFDCF8EB587EC8EBD0DB407FE46
:10214000FDCF8EB5289A289885EC8EBD0DB407FE7C
:10215000FDCF8EB580E88EBD0DB407FEFDCF8EB5E8
:10216000289A1092B4028BE080934102289888EC60
:102170008EBD0DB407FEFDCF8EB58BE68EBD0DB4C2
:1021800007FEFDCF8EB5289A2F9A81E08093AE038B
:1021900080E00E94330437C00E948A0B34C02FBFF6
:1021A00032C090911903852F8923B9F0E42FFF27BE
:1021B000EE0FFF1FE851FD4F208131811182108207
:1021C000852F8095982390931903442331F4255447
:1021D0003240B1F410921A0213C04F5F483098F4A5
:1021E000550FDFCF80911702E82FFF27EE0FFF1F5B
:1021F000E851FD4F6081718141E00E94AD0D03C047
:10220000550F41E0CECF29960FB6F894DEBF0FBE32
:10221000CDBFDF91CF911F910F91FF90EF90DF9095
:10222000CF90BF90AF909F908F907F906F905F9076
:102230004F903F902F900895809115038F3FB1F0FC
:10224000282F3327F901ED5CFD4F80818093150322
:102250008F3F11F48093B4038FEF80832F3F31F0D1
:10226000822F0E94EB0D81E090E0089580E090E0E5
:1022700008951F931FB7F89414BE88E10FB6F89421
:1022800080936000109260000FBE4CE050E06FEF52
:1022900070E083E392E00E94B0148FEF8093150307
:1022A0008093B40356985E9854985C9880916F0020
:1022B0008F7D80936F00209A289A279A2F980E9AE4
:1022C000169A85E892E090932C0280932B0210924C
:1022D0007F028AE58093750281E08093810080E22D
:1022E0008093B60083E08093B10080918400909148
:1022F00085004AE72091840030918500281739072E
:1023000008F44150442311F0C901F4CF9091B20078
:102310008091B2008917E1F320918400309185000B
:102320009091B2008091B2008917E1F3809184000E
:1023300090918500821B930B409665E0969587955A
:102340006A95E1F790931703809316031092B100FA
:102350008091B10080938100809181008093B600CC
:102360001092B20010928500109284008FEF87BB0C
:1023700087B386BB8091B6008571E1F70A9A099A06
:10238000089A129A119A109A18B88FEF87B90C9878
:102390001498109285001092840080916F008160E3
:1023A00080936F0080918100887F8260809381009C
:1023B0000E941C118823E1F78FEF8093820280E056
:1023C0000E94EE0020910C0230910D022F5F3F4FD2
:1023D000C901AA27BB2780937B0290937C02A0931C
:1023E0007D02B0937E028FE193E09093220280936E
:1023F00021028F9690932402809323028DE793E02D
:1024000090932602809325028FEF9FEF909308030D
:102410008093070390930A038093090390930C031E
:1024200080930B0390930E0380930D0390931003FE
:1024300080930F0380910C028295807F80931D0210
:102440008FEF809374028091B60080628093B60013
:102450008091B60081FDFCCF82E08093B000809136
:10246000B60080FDFCCF83E08093B1008091B60080
:1024700083FDFCCF86EE8093B30080917000826074
:10248000809370000E943D020E941C118823E1F796
:10249000812F99278FBF78940E941F0C8FB7F894D3
:1024A000482F552757C080917000992783709070EE
:1024B000892B19F4E5E0F0E014C08091B6008A7130
:1024C000E1F78091B3009091B200891B8C3038F015
:1024D0008091B200853F18F4E3E0F0E002C0E2E052
:1024E000F0E080916E00867009F580916F008E7229
:1024F000E9F4809171008E72C9F40CB407FC16C027
:102500008091C100887191F48091C900887171F443
:102510008091BC0082FD0AC080917A0087FF03C0D1
:1025200081E090E005C085E090E002C080E090E0AE
:1025300023B78E1708F4E82FFF27E453FF4FE491E9
:10254000207F2160E22BE3BF78948895F89483B7CD
:102550008E7F83BF809115038F3F09F4A4CF282F6E
:102560003327F901ED5CFD4F8081809315038F3F88
:1025700011F48093B4038FEF80832F3F09F493CF3E
:102580004FBF822F0E94EB0D89CFACE2B0E0EBECA5
:10259000F2E10C947914222E332E442E552E662E01
:1025A000772E882E992EFE013196A8E01192AA95D9
:1025B000E9F729823A824B825C826D827E828F8229
:1025C0009886FE013996B8E01192BA95E9F7A98686
:1025D000BA86CB86DC86ED86FE860F87188B8981CE
:1025E0009A81AB81BC8189A79AA7ABA7BCA77C01C4
:1025F0008D018FEF9FEFA0E0B0E0E822F9220A23DF
:102600001B2389A59AA5ABA5BCA51D01442455246F
:1026100089859A85AB85BC858DA39EA3AFA3B8A7FA
:102620005C016D018FEF9FEFA0E0B0E0A822B9221E
:10263000CA22DB228DA19EA1AFA1B8A53D018824AD
:102640009924C801B701A60195010E945A1469A3F3
:102650007AA38BA39CA3C801B701A40193010E9494
:102660005A147B018C01C201B101A60195010E949F
:102670005A145B016C01C201B101A40193010E94D3
:102680005A143B014C01EA0CFB1C0C1D1D1D89A1B9
:102690009AA1ABA1BCA19D01442755272E0D3F1D3A
:1026A000401F511F2A153B054C055D0540F480E095
:1026B00090E0A1E0B0E0680E791E8A1E9B1ECA0160
:1026C000AA27BB27860D971DA81DB91D8D8F9E8F2C
:1026D000AF8FB8A3A9013327222789A19AA1ABA163
:1026E000BCA1A070B070280F391F4A1F5B1F298F33
:1026F0003A8F4B8F5C8FA98CBA8CCB8CDC8CED8C99
:10270000FE8C0F8D18A1FE01719698E011929A959A
:10271000E9F7ED8AFE8A0F8B188F2D813E814F815C
:1027200058856DA17EA18FA198A50E945A143B01E6
:102730004C012D853E854F85588969A57AA58BA5C5
:102740009CA50E945A142D893E894F89588D260FC9
:10275000371F481F591F260D371D481D591D2D8B2A
:102760003E8B4F8B588F6D887E888F88988C2A2D52
:102770003B2D4C2D5D2D662D772D882D992DE2E179
:10278000AC960C949514A0E1B0E0E9ECF3E10C9464
:102790007914222E332E442E552E662E772E882E17
:1027A000992E002309F466C088E0FE01319611924B
:1027B0008A95E9F729833A834B835C836D837E8313
:1027C0008F829887E0E2E01B1E16CCF52D813E81BA
:1027D0004F815885602F772767FD7095DA01C90111
:1027E000062E04C0B695A795979587950A94D2F7BB
:1027F0008D879E87AF87B88B04C0220F331F441F7D
:10280000551FEA95D2F789819A81AB81BC8104C0BA
:10281000B695A795979587956A95D2F7282B392B6A
:102820004A2B5B2B29873A874B875C8729843A841C
:102830004B845C846D847E848F8498881BC01D8645
:102840001E861F86188A2E2F332727FD3095309538
:1028500021953F4F8D819E81AF81B88504C0B6958B
:10286000A795979587952A95D2F789879A87AB87F9
:10287000BC87DCCF222D332D442D552D662D772D91
:10288000882D992DE2E160960C949514AA1BBB1B30
:1028900051E107C0AA1FBB1FA617B70710F0A61B60
:1028A000B70B881F991F5A95A9F780959095BC0181
:1028B000CD010895629FD001739FF001829FE00DCA
:1028C000F11D649FE00DF11D929FF00D839FF00DAF
:1028D000749FF00D659FF00D9927729FB00DE11D5B
:1028E000F91F639FB00DE11DF91FBD01CF01112438
:1028F00008952F923F924F925F926F927F928F92A4
:102900009F92AF92BF92CF92DF92EF92FF920F937E
:102910001F93CF93DF93CDB7DEB7CA1BDB0B0FB688
:10292000F894DEBF0FBECDBF09942A883988488845
:102930005F846E847D848C849B84AA84B984C884DB
:10294000DF80EE80FD800C811B81AA81B981CE0FD2
:10295000D11D0FB6F894DEBF0FBECDBFED010895B7
:10296000DC0101C06D9341505040E0F70895FFCF66
:10297000544F535F4E4F44455F49440001000100EE
:0829800022FFFFFFFFFFFF0132
:00000001FF
